:020000040800F2
:1000000030070020E50100084B2600085B250008AA
:100010004926000815130008D52700080000000035
:100020000000000000000000000000004F26000853
:100030004F130008000000004D260008512600085C
:10004000FF010008FF010008FF010008FF01000890
:10005000FF010008FF010008FF010008FF01000880
:10006000FF010008FF010008FF0100081913000844
:10007000FF010008FF010008FF010008FF01000860
:10008000FF010008FF010008FF010008FF01000850
:10009000FF010008FF010008FF010008FF01000840
:1000A000FF010008FF010008FF010008FF01000830
:1000B000FF010008FF010008FF010008FF01000820
:1000C000FF010008FF010008FF010008FF01000810
:1000D000FF010008FF010008FF010008FF01000800
:1000E000FF010008FF010008FF010008FF010008F0
:1000F000FF010008FF010008FF010008FF010008E0
:10010000FF010008FF010008FF010008FF010008CF
:10011000FF010008FF010008FF010008FF010008BF
:10012000FF010008FF010008FF010008FF010008AF
:1001300000F002F800F047F80AA090E8000C8244B2
:100140008344AAF10107DA4501D100F03CF8AFF28F
:10015000090EBAE80F0013F0010F18BFFB1A43F0A5
:1001600001031847FC2A00001C2B0000103A24BF92
:1001700078C878C1FAD8520724BF30C830C144BF0C
:1001800004680C607047000000230024002500264E
:10019000103A28BF78C1FBD8520728BF30C148BFEA
:1001A0000B607047662902F08B84002070471FB5F2
:1001B00000F0C6FA04000020002102F051FBE060CC
:1001C0001FBD10B510BD00F0D7FB1146FFF7EFFFC4
:1001D00002F030FB00F0F5FB03B4FFF7F2FF03BCC5
:1001E00002F01DFB0948804709480047FEE7FEE78B
:1001F000FEE7FEE7FEE7FEE7FEE7FEE7FEE7FEE7D7
:1002000004480549054A064B70470000B726000818
:1002100031010008300100203007002030030020A9
:1002200030030020704700000FB4044910B503AA42
:10023000029800F073FA10BC5DF814FB0400002073
:100240002DE9F0410E460446002020622046E16878
:10025000884730B3252805D0D4E901219047206A8A
:10026000401CF2E7E168204600278847050018D0C7
:10027000A5F14100192802D820354FF40067324615
:10028000294620462760FFF78DFF40B1012804D0A2
:10029000F61D26F007060836D8E7361DD6E72846AD
:1002A000DAE7206ABDE8F0814FF0000200B513469E
:1002B00094469646203922BFA0E80C50A0E80C5086
:1002C000B1F12001BFF4F7AF090728BFA0E80C5037
:1002D00048BF0CC05DF804EB890028BF40F8042B30
:1002E00008BF704748BF20F8022B11F0804F18BF9D
:1002F00000F8012B70477047704770477047704790
:100300002DE9FF4F0C461E464FF0FF378BB0D2E968
:100310000001DDF860800A908A46C1F30A5505B9EC
:100320003D46002108464FF00000BAF1000F00F4EE
:10033000400005DA00EB80004FF4400101EA500074
:100340004FEA9059B9F1010F00DDB9460A9850EA19
:100350004A000ED044F61050A5F2FF3545432F1445
:10036000B8F1000F1ED07542291E1EDDC9F1000232
:100370001CE0B8F1010F4FF0000001D0302103E084
:10038000F24305E02154401CB042FBDB3046002222
:10039000002121540B99C1F80880C1E900200FB059
:1003A000BDE8F08FBD1B6D1CDEE74A4600DA6942EE
:1003B00006A800F067FA06AB93E8070003AB83E8F2
:1003C000070050460A9900F045FB8DE80700A0F5AC
:1003D00000501F3800900398002D0ADD42F21F01E3
:1003E0004A460844002303A90390684600F0AEFD86
:1003F00009E0A0F500504A461F38002303A90390E6
:10040000684600F0B8FD8DE807000004000C03D03A
:100410004FF0FF30410800E01046B8F1000F03D064
:100420000022009215461EE0751E05D400F08CF9DE
:10043000303262556D1EF9D5B3460122084302D011
:1004400000227F1C04E02078302801D100227F1E8A
:10045000002A099784D01DE0112D07DA00F074F905
:10046000303262556D1C50EA0102F5D1084302D0CA
:100470000098C8B10EE00021681E05E0235C625CB4
:1004800063542254401E491C8142F7DBAB46A81B33
:10049000401E0990002004F80B000B98099AC0F840
:1004A0000880C0E9002B7AE711264FF0000857E7D3
:1004B0002DE9F04F88460446D21D22F0070191B085
:1004C000D1E90001CDE90A0102F085F902460B9855
:1004D000C00F01D02D2007E02068810701D52B2017
:1004E00002E0202101EAC000032A099001D0072A76
:1004F00005DB03464146204600F084F90BE12078F5
:10050000800601D5E06900E00620B8F1650F81465C
:1005100006D0B8F1660F18D0B8F1670F70D131E08E
:100520000020B9F1110F009001DB112301E009F166
:1005300001030AAA01A90CA8FFF7E2FEDDE90C708D
:10054000002609F10105834647E001204B46009053
:100550004FF000470AAA01A90CA8FFF7D1FEDDE978
:100560000DB00C995D46002610B909F101000D1877
:10057000B9EB050003D4C0F1FF3609F10105A5EB85
:1005800009002BE0B9F1010F01DA4FF00109002059
:10059000B9F1110F0090484601DD112300E0034638
:1005A0000AAA01A90CA8FFF7ABFEDDE90C704D46C5
:1005B00000268346207800070AD4AB4500DA5D4662
:1005C00001A8012D04DD411911F8011C302907D0C3
:1005D0004F4502DA17F1040F04DA012082460FE0DA
:1005E0006D1EEEE7002F02DCED1B3E4403E0781C9D
:1005F000A84200DD7D1CB81B00F1010A4FF0004746
:100600002078000703D4AA4501DB4FF0FF3A002110
:10061000B7F1004F0DF143088DF8431024D00220AC
:100620002B23002F01DA7F422D230A21021EA0F185
:10063000010000DC5FB197FBF1FC97FBF1F201FBDD
:100640001C7C17460CF1300C08F801CDEEE7A8F140
:10065000010003702188090501D5452100E06521CD
:10066000A0F1010800F8011C09980FA9A1EB0807E7
:10067000FF1D00B10120411901EBEA70A169384466
:10068000081A401EA0612078C00602D42046AFF3AD
:100690000080099828B1D4E901219047206A401CC4
:1006A00020622078C00622D52046AFF300801EE0ED
:1006B000002E04DBB34502DD01A8805D00E03020A0
:1006C000D4E901219047206A401C2062761CAAF1DF
:1006D00001005FEA000A0AD100F032F8C068016840
:1006E000405CD4E901219047206A401C2062281E0A
:1006F000A5F10105DCDC07E0D4E9012118F8010BC4
:100700009047206A401C2062381EA7F10107F3DCE5
:100710002046AFF30080032011B041E6074B70B5CF
:100720000D467B4400F05BF80446284600F01CF9B7
:1007300010B14FF0FF3070BD204670BDFB200000AF
:1007400000487047EC00002030B5B0F10A024FEAD3
:10075000900E71F100034EEA817EB0EB0E0061EB6A
:1007600091014FEA101E4EEA017E10EB0E0041EBA4
:1007700011114FEA102E4EEA016E10EB0E0041EB04
:1007800011214FEA104E4EEA014E10EB0E0041EBE4
:100790001141401841F100014FEAD00040EA417098
:1007A0004FEAD10110EB80054FEA810444EA9074CE
:1007B00044EB01046D1944EB0404521BA3414FF0B8
:1007C000000348BF0A3200D530BD401C41F1000192
:1007D00030BD000001694A1C02610878704700B50D
:1007E0008FB0CDE901310021059105497944CDE96A
:1007F000031011466846FFF723FD0FB000BD00004F
:10080000E5FFFFFF2DE9F0411F460446032601687E
:10081000072A01F4006004DB08B116A505E016A55F
:1008200003E008B115A500E015A521F01000206037
:10083000A069C01EA0610FB1401EA0612046AFF3A9
:1008400000804FB1D4E9012138469047206A401C0E
:100850002062C01C206206E0206AFAE7D4E9012188
:1008600015F8010B9047761EF8D22046AFF30080B2
:10087000BDE8F0814E414E006E616E00494E46006B
:10088000696E66002DE9F047814616468AB0354804
:1008900078440DC88DE80D0032487844801C03ACC4
:1008A0000DC884E80D0041F69B300844372190FBC9
:1008B000F1F290FBF1F5A5F1800501FB12041B3C60
:1008C00002D56442012000E00020DFF898A08046B5
:1008D0000027FA44AAF1BE0A0EE0E0070AD0324629
:1008E000684607EB470101230AEB810100F043FB57
:1008F0008DE8070064107F1C002CEED1194F7F4457
:10090000AE3F19E0E80715D007EB04100DF1180A07
:1009100090E80E008AE80E00C068F04201D19819F4
:1009200008903246012306A903A800F024FB03AB7C
:1009300083E807006D10641C002DE3D14FF0010324
:1009400032466946B8F1000F03A802D000F0FEFA63
:1009500001E000F010FBC9E90001C9F808200AB065
:10096000BDE8F087B4230000007B00F080007047F2
:1009700000487047CC0000207546FFF7F9FFAE46EF
:1009800005006946534620F00700854618B020B59B
:10099000FFF736FCBDE820404FF000064FF000079F
:1009A0004FF000084FF0000B21F00701AC46ACE817
:1009B000C009ACE8C009ACE8C009ACE8C0098D4684
:1009C000704710B50446AFF300802046BDE81040E4
:1009D000FFF702BC4FF0013C50F8042B51F8043BE8
:1009E0009A4221D1A2EB0C03934313EACC1317D103
:1009F00050F8042B51F8043B9A4215D1A2EB0C039A
:100A0000934313EACC130BD150F8042B51F8043B59
:100A10009A4209D1A2EB0C03934313EACC13DBD027
:100A20004FF00000704700BFD01A01BAB1FA81F14F
:100A300001F0180122FA01F0CB40C1F12001DBB234
:100A4000C0B2C01A2CFA01F3D11A914311EAC311B2
:100A5000E6D170475FEA400C08BF91F0000F4FEA03
:100A60008C234FEAC12243EA51514FEA1C5018BF70
:100A700000F5F0404FEA300018BF41F000415FEA56
:100A80006C5C00F02980BCF1FF3F08BF40F0804063
:100A90007047130C06BF12044FF0100C4FF0000CFF
:100AA000130E04BF12020CF1080C130F04BF120145
:100AB0000CF1040C930F04BF92000CF1020CD30F45
:100AC00004BF52000CF1010C11464FF00002A0F1DE
:100AD0001F00A0EB0C00704711F0004F08BF7047DB
:100AE00031F000413FF4D5AF0B0C06BF09044FF0C5
:100AF000100C4FF0000C0B0E04BF09020CF1080C97
:100B00000B0F04BF09010CF1040C8B0F04BF89000B
:100B10000CF1020CCB0F04BF49000CF1010CCCF11D
:100B20002003A0EB0C0022FA03F302FA0CF241EAD4
:100B3000030100F10100704720F07F4C80EA0300C0
:100B400023F07F47ACEB070303F57C5300F0004034
:100B500003F1FF032DE980494FEA154B09B44FEA31
:100B6000144325EA0B4E24EA03480FF2042606EB51
:100B7000132749083E785FEA320203FB0667C7F590
:100B8000000707FB06F64FEA54374FEAD64606F150
:100B9000020607FB066CCCF1005C4FEA1C472CEA0E
:100BA000074C07FB06F40CFB06F504EB15464FEA71
:100BB000961634BF00204FF000404FEAD13706FBB5
:100BC00007FC4FEA1C4C0CFB0BF7D21B03FB0CF78A
:100BD00061EB07010CFB0EF7B0EB074072EB17421D
:100BE0000CFB08F734BFA2EB0742B2EB074261EB04
:100BF00017414FEA0C444FEA910706FB07FC4FEA06
:100C00001C4C0CFB0BF7B0EBC74072EB573203FBED
:100C10000CF734BFA2EBC742B2EBC74261EB5731CE
:100C20000CFB0EF7B0EBC70072EB57720CFB08F72A
:100C300034BFA2EBC702B2EBC70261EB5771039F4F
:100C40004FEA816141EA921104EBCC044FEAD137BB
:100C50004FEA826206FB07FC42EA90124FEA80608C
:100C60004FEA1C4C0CFB0BF7D21B03FB0CF761EBA0
:100C700007010CFB0EF7B0EB074072EB17420CFBC1
:100C800008F734BFA2EB0742B2EB074261EB174112
:100C90004FEA8C554FEA910704EB9C2406FB07FCB6
:100CA0004FEA1C4C0CFB0BF7B0EBC74072EB573212
:100CB00003FB0CF734BFA2EBC742B2EBC74261EBB8
:100CC00057310CFB0EF7B0EBC70072EB57720CFB01
:100CD00008F734BFA2EBC702B2EBC70261EB577152
:100CE00015EB4C254FEA816141EA92114FEA82628D
:100CF0004FEAD13742EA901206FB07FC44F10004A8
:100D00004FEA80604FEA1C4C0CFB0BF7D21B03FB35
:100D10000CF761EB07010CFB0EF7B0EB074072EB31
:100D200017420CFB08F734BFA2EB0742B2EB0742B5
:100D300061EB174115EB1C154FEA813141EA9241F5
:100D40004FEA823242EA90424FEA80304FEA0C7614
:100D500044F1000448EA03434EEA0B484FF0000E0A
:100D6000B2EB080C71EB030724BF624639464EEB29
:100D70000E0E4FF0000B0018524149414BEB0B0B8C
:100D8000B2EB080C71EB03077BF1000B24BF62464A
:100D900039464EEB0E0E4FF0000B00185241494100
:100DA0004BEB0B0BB2EB080C71EB03077BF1000B69
:100DB00024BF624639464EEB0E0E51EA020718BFB9
:100DC00046F0010616EB0E7655F1000254F10001D3
:100DD00003D5BDE88901BDE80088BDE88901BDE80B
:100DE0000048B619524141EB0101A3F101037047DC
:100DF00080807F7E7D7C7B7A797877767675747358
:100E0000727171706F6E6E6D6C6C6B6A6A69686816
:100E1000676666656464636362616160605F5F5EAC
:100E20005E5D5D5C5C5B5B5A5A5959585857575622
:100E30005655555554545353525252515150505087
:100E40004F4F4F4E4E4D4D4D4C4C4C4B4B4B4A4AD9
:100E50004A4949494848484747474746464645451D
:100E60004544444444434343434242424241414156
:100E7000002B9C4630D477002BD01CB54FEA3707A7
:100E800003B44FF010004FF01001BAF1000F06D07C
:100E9000BCF1000FDCBF40F0080040F008014FF04B
:100EA00000000FBCBDE810400BF1010BBBF1010FBE
:100EB00008BF5FEA170722BF12F1010211F1010119
:100EC0004FF0004143F1000300F0004043EA00000E
:100ED0007047F9D35708D0E746EA064613F1400FAA
:100EE0004FEA16461FDD13F1200FDFBF16430A46F7
:100EF000002120335B42BED0C3F1200746EA0646FC
:100F000002FA07F74FEA164646EA0706C3F120073A
:100F100022FA03F201FA07F721FA03F14FF0000376
:100F200042EA0702A7E746EA020646EA06464FEA11
:100F3000164646EA0106BCBF46EA0646360C4FF0A6
:100F400000034FF000024FF0000194E72DE9804CC0
:100F50009A46934670B491E8380007C831EA400CCD
:100F600048BF34EA430C03D5FFF7E6FDFFF780FFE7
:100F7000F0BCBDE8008C2DE9804C9A46934670B4D5
:100F800091E8380007C810F0804F08BF13F0804F79
:100F900003D100F005F8FFF76BFFF0BCBDE8008C53
:100FA00020F07F4780EA030023F07F4C07EB0C031F
:100FB000A3F57C5300F00040A3F1FE0392F0000F74
:100FC00000F0B38095F0000F00F077802DE9014923
:100FD0004FEA11404FEA144621EA004800FB06FCA4
:100FE00024EA064708FB06F607FB08F800FB07F7AC
:100FF00018EB06484CEB164C4FEA124B18EB07481F
:101000004FEA15464CEB174022EA0B4E0BFB06FC51
:1010100025EA06470EFB06F607FB0EFE0BFB07F75D
:101020001EEB064E4CEB164C4FF000061EEB074E27
:101030004CEB174B18EB0B0840F1000018EB0E0BB4
:1010400058EB000840F100008F1A4FF000013CBF40
:10105000C943661B14BFB5EB040C00213CBFC94358
:10106000F61B4FEA17444EEA8E0E27EA04454FEA74
:101070001C4704FB07622CEA074C05FB07F70CFB37
:1010800005F604FB0CFC16EB074642EB174216EB89
:101090000C4642EB1C421BEB060658EB0202414198
:1010A00046EA9E0601D5BDE80189B619524141EBD9
:1010B0000101A3F10103BDE801894FEA14454FEA9C
:1010C000114724EA054621EA074C05FB07F406FB15
:1010D00007F70CFB06F105FB0CFC11EB074144EB99
:1010E00017444FEA124711EB0C4144EB1C4422EA2F
:1010F000074C05FB07F206FB07F70CFB06F605FBA2
:101100000CFC16EB074642EB174216EB0C4642EB83
:101110001C456A1854F1000148BF7047B619524186
:1011200041EB0101A3F10103704795F0000F37D0A7
:101130004FEA11424FEA144721EA024624EA074CDB
:1011400002FB07F106FB07F70CFB06F402FB0CFCA5
:1011500014EB074441EB17414FEA154714EB0C44DD
:1011600041EB1C4125EA074C02FB07F506FB07F79C
:101170000CFB06F602FB0CFC16EB074645EB17458D
:1011800016EB0C4645EB1C42121951F1000148BF09
:101190007047B619524141EB0101A3F101037047B9
:1011A0004FEA14454FEA114724EA054621EA074C65
:1011B00005FB07F106FB07F70CFB06F24FF00006F4
:1011C00005FB0CFC12EB074241EB174112EB0C4202
:1011D00051EB1C4148BF7047921841EB0101A3F14C
:1011E0000103704770B5044600688168C943C907A8
:1011F0001CD1816821F00101816000F047FD0546A6
:101200000FE000BF00F042FD401B022809D9A06A90
:1012100040F01000A062E06A40F00100E0620120AE
:1012200070BD20688068C043C007EBD0002070BD4F
:1012300010B50146406A826A12F0500F05D0006A6C
:10124000026BBDE8104008461047816A41F4007106
:10125000816201688968C1F3424107290CD1017B91
:1012600051B9816A21F480718162816AC90403D411
:10127000816A41F00101816200F0EAF810BD10B509
:10128000406A816A41F040018162C16A41F0040113
:10129000C16200F006F910BD10B5406A00F000F917
:1012A00010BD0000F8B5002604460096006881686D
:1012B000C943C90728D0816841F001018160134802
:1012C00013490068B0FBF1F000E0401E00900028D8
:1012D000FBD100F0DBFC054611E000BF00F0D6FCBE
:1012E000401B02280BD9A06A40F01000A062E06AFF
:1012F00040F00100E06284F824600120F8BD20681D
:101300008068C043C007E9D10020F8BD1400002068
:1013100040420F00FEE70000014800F021BA000043
:101320004800002030B590F840500124AC40C56B17
:101330006C60046863604368102B036803D0996095
:101340000068C26030BD9A600068C16030BD7047FF
:1013500070470000F8B50024009490F8242025463A
:10136000012A12D0012280F824204A681F23072A6C
:101370000DD20668776B521E02EB820293409F43A8
:101380000B6893401F43776319E00220F8BD06689D
:101390000D2A0AD2376BD21F02EB820293409F4381
:1013A0000B6893401F43376309E0F76A0D3A02EB7D
:1013B000820293409F430B6893401F43F7620A6881
:1013C000072306680A2A0AD3F7680A3A02EB4202A0
:1013D00093409F438B6893401F43F76008E0376951
:1013E00002EB420293409F438B6893401F43376157
:1013F0000A68102A01D0112A20D1124B02689A42A1
:1014000017D193681B0219D4936843F400039360C7
:101410000968102912D10C490C4A0968B1FBF2F194
:1014200001EB8101490000E0491E00910029FBD138
:1014300004E0816A41F020018162012480F8245097
:101440002046F8BD002401401400002040420F0057
:1014500010B50C49884213D10B48008801F01EFAE0
:101460006FF00B0201F060FB4FF06632074B01F0AA
:1014700029FA0246BDE810400B4605A0FEF7D4BE8F
:1014800010BD0000180000200000002066660A4021
:101490006164632076616C75653A25660D0A00000B
:1014A000704770472DE9F04104004FF000057FD0F0
:1014B000A06A002628B9E66284F82460204600F07D
:1014C00081F82046FFF78EFEA16AC90600D420B13C
:1014D000A06A40F01000A0626AE0A16A21F488517D
:1014E00041F00201A162334923688B42E16904D1D2
:1014F000B1F5402F01D14FF40021277B4FF4807CC0
:1015000041EA470261680A43A168614508D00129A0
:1015100006D0002194F814E0BEF1010F02D00AE0D9
:101520006146F7E7C7B1A76A47F02007A762E76AF5
:1015300047F00107E7625F6827F469470F435F6080
:10154000236899681C4F394011439960A16861452F
:101550000BD0012909D00CE0DFF860E0A7690EEBA1
:1015600047370F4347F40061E5E7218A0D05A5F5EC
:1015700080152168CB6A23F470032B43CB6221686A
:1015800089680F4B1940914208D1E662A16A21F0A7
:10159000020141F00101A162BDE8F081A06A20F0E2
:1015A000020040F01000A062E06A40F00100E0623A
:1015B0000120F1E7003C0140FDF7E1FF00E0FFFF03
:1015C000FE0E1FFF70B586B00025064600950195FA
:1015D0000295039500681A4988422ED119498869F5
:1015E00040F400708861886900F400700490886994
:1015F00040F0040088618869694600F004000490A6
:1016000002200090032001900F4800F043FA104C94
:101610000E48C4E900058020C4E902504000206162
:10162000800060612020C4E90605204600F0BCF976
:1016300008B1FFF78DFE3462666206B070BD00002F
:101640000024014000100240000801400800024050
:10165000480000202DE9F047894604463B490068D0
:101660003B4F0E1D9046884201D0B84207D13068EA
:1016700010F4702F03D001252846BDE8F08794F8B8
:10168000240001280CD0012084F824002046FFF714
:1016900009FE05004FF0000004D084F82400EBE7B9
:1016A0000220EAE7A16A40F60162914341F48071A9
:1016B000A1622168B94218D1326812F4702F14D097
:1016C000A16A41F48011A1623168490505D5A16A7A
:1016D00021F4005141F48051A162A16AC9040AD5E4
:1016E000E16A21F00601E16206E0A26A22F48012BA
:1016F000A2624968E9E7E06284F82400216A15489B
:101700008862216A1448C862216A14480863216803
:101710006FF0020008602068816841F48071816088
:10172000216843464A464C31206A00F07BF9206824
:101730008168C1F342410729816803D041F48011D7
:10174000816099E741F4A001FAE70000002401401C
:101750000028014031120008991200087F12000889
:101760002DE9F05FC16B0A6801680B68046C4FF0EB
:10177000040808FA04F8844D844E854FDFF814C23B
:10178000DFF81492DFF814A2DFF814B2DFF814E2E5
:1017900018EA020F65D05FEA437862D50A689206BC
:1017A00003D40A6822F004020A60DFF8F0814FF4E3
:1017B0008062016808F1140813011402414524D91C
:1017C000A9420DD0B1420FD0B9421AD0614515D00F
:1017D000494515D0514501D1120312E0594501D1B7
:1017E00004220EE0714501D140220AE06D4D14350E
:1017F000A94206D06B4A2832914201D11A4600E034
:1018000022466749091F0A6029E0A94213D0B14264
:1018100015D0B94220D061451BD049451BD0514558
:1018200002D14FF4800217E0414502D14FF08062AF
:1018300012E0594501D104220EE0714501D1402248
:101840000AE0584D1435A94206D0564A2832914232
:1018500001D11A4600E022464B4908394A60C16A64
:1018600071E04FF0020808FA04F818EA020F70D08D
:101870005FEA83786DD50A68920606D40A6822F07A
:101880000A020A60012180F82110DFF810814FF46C
:101890000072016808F1140813011402414524D9AB
:1018A000A9420DD0B1420FD0B9421AD0614515D02E
:1018B000494515D0514501D1120312E0594501D1D6
:1018C00002220EE0714501D120220AE0354D143587
:1018D000A94206D0334A2832914201D11A4600E08B
:1018E00022462F49091F0A6029E0A94213D0B142BC
:1018F00015D0B94220D061451BD049451BD0514578
:1019000002D14FF4001217E0414502D14FF00072AE
:1019100012E0594501D102220EE0714501D1202289
:101920000AE0204D1435A94206D01E4A28329142C1
:1019300001D11A4600E02246134908394A600021C5
:1019400080F82010816A00291CD0BDE8F05F0847AC
:10195000FFE70825A540154214D01A0712D50A68DA
:1019600022F00E020A6090F84020C36B012101FAB8
:1019700002F25A60816380F82110002180F8201063
:10198000016BE0E7BDE8F09F080002401C00024048
:101990003000024044000240580002406C00024007
:1019A000080402401C04024030B560B11A4B0268C2
:1019B00014219A4209D2194B1344B3FBF1F1890067
:1019C000016417490AE0012030BD134B5B42134408
:1019D000B3FBF1F1890001640F490839C1630221A9
:1019E00080F82110136843F6F0718B43F0E901147D
:1019F0002143D0E902452C43214304692143446932
:101A0000214384692143194311600021416301226C
:101A100042770177084630BD08040240F8FFFDBF59
:101A20000000024070B5044690F82000002501280F
:101A30000CD0012084F8200094F821600020012EB1
:101A400006D084F820000225284670BD022070BD13
:101A5000022684F82160A0632068066826F001064B
:101A600006602046FFF75EFCE06A002820680168F7
:101A700002D041F00E0106E021F00401016020686F
:101A8000016841F00A0101602068016841F001012C
:101A90000160D9E72DE9F84FDFF8C891002409F17A
:101AA000040A0AF1040B23460F270BF1040ED1E0C0
:101AB0000125A54006EA0502AA4276D1DFF8A8C1B1
:101AC0004E68A6EB0C0866452BD00DDC032E34D0F7
:101AD00005DC36B3012E19D0022E2FD11BE0112EBA
:101AE00016D0122E2AD119E0B8F5881F19D006DCBD
:101AF000B8F5803F15D0B8F5801F1FD111E0B8F5BB
:101B0000001F0ED0B8F5041F18D10AE0CB6815E00D
:101B1000CB681B1D12E0CB6808330FE0CB680C3399
:101B20000CE08B682BB1012B4FF0080303D045610B
:101B300004E0042302E0056100E00023FF2A01D84D
:101B4000064601E000F104064FEA840501D9A5F13B
:101B50002005D6F8008007FA05FC28EA0C0803FAED
:101B600005F548EA0508C6F800804D68ED0070D517
:101B70003E4DAE6946F00106AE61AD6924F0030644
:101B800005F0010500953A4D06EB050CDCF8085010
:101B9000A607360F07FA06F825EA0805DFF8D4800D
:101BA000404503D14FF0000825E052E0DFF8C8803F
:101BB000404502D14FF001081DE0DFF8C0804045EC
:101BC00002D14FF0020816E0DFF8B480404502D1A0
:101BD0004FF003080FE0DFF8AC80404502D14FF032
:101BE000040808E0DFF8A080404502D14FF0050866
:101BF00001E04FF0060808FA06F848EA0508CCF8B4
:101C000008804D68D9F80060ED034D4601D51643B4
:101C100000E096432E604D68DAF80060AD0355464B
:101C200001D5164300E096432E604D68DBF8006056
:101C3000ED025D4601D5164300E096432E604D68E7
:101C4000DEF80060AD02754601D5164300E096430C
:101C50002E60641C0A681646E2407FF429AFBDE896
:101C6000F88F000000040140000011100010024035
:101C70000000014000080140000C0140001001403C
:101C80000014014000180140001C01400148806818
:101C90007047000008000020024881680278114463
:101CA0008160704708000020074810B5016841F0C6
:101CB00010010160032000F075F8002000F006F824
:101CC00000F024F8002010BD0020024070B50D4D3A
:101CD00004464FF47A712878B1FBF0F00A4909689C
:101CE000B1FBF0F000F062FB48B9102C07D20022E3
:101CF0002146501E00F036F800206C6070BD0120B7
:101D000070BD000008000020140000200C4808B539
:101D1000816941F001018161816901F00101009156
:101D2000C16941F08051C161C06900F080500090EC
:101D30000448416821F0E06141F00071416008BD54
:101D40000010024000000140002809DB00F01F02E3
:101D5000012191404009800000F1E020C0F800110D
:101D600070470000F0B40E4B1B680C46C3F302230F
:101D7000C3F10705042D00D90425191D072901D237
:101D8000002300E0DB1E012606FA05F1491E214072
:101D900099409E40761E16403143F0BC00F02FBDA6
:101DA0000CED00E0064900F0070208684FF6FF035B
:101DB000184040EA0220034A1043086070470000C0
:101DC0000CED00E00000FA052DE9F8430546007827
:101DD000354CC00754D0E0690026C00008D4E06943
:101DE00040F08050E061E069012600F080500090F2
:101DF0002E480168C90512D40168804641F48071FB
:101E00000160FFF743FF074605E000BFFFF73EFF15
:101E1000C01B642823D8D8F80000C005F6D5206A76
:101E200010F4407021D0A98801F4407181421CD087
:101E3000206A1F49012220F440700A6000220A60D3
:101E40002062C00711D0FFF721FF074641F2883812
:101E500008E000BFFFF71AFFC11B414502D903206C
:101E6000BDE8F883206A8007F4D5206A696820F409
:101E70004070084320621EB1E06920F08050E061AC
:101E80002878800705D56068A96820F44040084399
:101E900060602878C00605D56068696920F4800014
:101EA000084360600020DBE7001002400070004043
:101EB000400442422DE9F0470F46050061D0434EF1
:101EC000306800F00700B84209D2306820F00700FF
:101ED00038433060306800F00700B84251D12868BC
:101EE0003B4C810712D5400703D5606840F4E060A1
:101EF00060602878000703D5606840F46050606037
:101F00006068A96820F0F000084360602878C00786
:101F100028D06868012810D02168022810D08907CD
:101F200000292EDA616821F0030101436160FFF7A7
:101F3000ADFE804641F288390DE021688903EFE764
:101F40008901EDE7FFF7A2FEA0EB0801494502D9A0
:101F50000320BDE8F0876068696800F00C00B0EB12
:101F6000810FEFD1306800F00700B8420BD930681C
:101F700020F0070038433060306800F00700B842B6
:101F800001D00120E5E72878400705D56068E968B9
:101F900020F4E060084360602878000706D5606898
:101FA000296920F4605040EAC100606000F038F810
:101FB0006168084AC1F30311515CC84006490860D2
:101FC00006480068FFF782FE0020C2E700200240BA
:101FD00000100240B42B0008140000200C00002068
:101FE0000448054900684968044AC1F30221515C6C
:101FF000C84070471400002000100240C42B0008A5
:102000000448054900684968044AC1F3C221515C8B
:10201000C84070471400002000100240C42B000884
:1020200012A185B00FC98DE80F0014A0144A0068F2
:1020300004905168134801F00C03042B10D0082BB6
:102040000ED1C1F38343C9031DF803000AD55168BB
:1020500004AAC1F34041515C0A4A5043B0FBF1F07D
:1020600005B0704708494843FAE700000203040539
:10207000060708090A0B0C0D0E0F101001020000D4
:102080000010024000127A0000093D002DE9F84FCF
:10209000040070D02078C04DC00749D06868C0F3F4
:1020A0008100012807D06868C0F38100022809D1A7
:1020B0006868C00306D52868800339D560680028A1
:1020C000E7D035E06068B0F5803F0BD010B1B0F5D7
:1020D000A02F11D0286820F480302860286820F4D0
:1020E000802002E0286840F480302860606890B169
:1020F000FFF7CCFD06460AE0286840F480202860FF
:10210000F0E700BFFFF7C2FD801B642873D8286882
:102110008003F7D50CE0FFF7B9FD064605E000BFE8
:10212000FFF7B4FD801B6428F0D828688003F7D43B
:1021300020789A4E80074FF001094FF0000839D5FA
:10214000686810F00C0F07D06868C0F3810002289F
:1021500009D16868C00306D42868800714D52069AF
:10216000012808D110E02069B0B1C6F80090FFF74F
:102170008DFD074605E00AE1FFF788FDC01B022838
:10218000C4D828688007F7D52868616920F0F8006E
:1021900040EAC10028600DE0C6F80080FFF776FD38
:1021A000074604E0FFF772FDC01B022823D8286809
:1021B0008007F7D4207800072CD57948A169D9B1D8
:1021C000C0F80090FFF762FD074604E0FFF75EFDF0
:1021D000C01B02280FD8686A8007F7D571484FF4F2
:1021E000FA510068B0FBF1F0009000BF0098411E6A
:1021F0000091FAD20EE080E0C0F80080FFF746FDC3
:10220000074604E0FFF742FDC01B022875D8686A44
:102210008007F7D42078400760D5E8690027C00020
:1022200008D4E86940F08050E861E869012700F0CF
:10223000805000905C480168C90513D4016883464A
:1022400041F480710160FFF721FD824606E000BF86
:10225000FFF71CFDA0EB0A0064284ED8DBF8000055
:10226000C005F5D5E06801280AD008B1052813D0CB
:10227000286A20F001002862286A20F0040002E0A9
:10228000286A40F001002862E06841F2883B98B17A
:10229000FFF7FCFC82460BE0286A40F0040028624D
:1022A000EEE700BFFFF7F2FCA0EB0A0159455AD850
:1022B000286A8007F6D50CE0FFF7E8FC824605E0C7
:1022C000FFF7E4FCA0EB0A0159454CD8286A8007C7
:1022D000F6D41FB1E86920F08050E861E06988B366
:1022E0006968C1F38101022944D00228C6F86080E0
:1022F00004D0FFF7CBFC044638E034E0FFF7C6FC1F
:10230000074604E0FFF7C2FCC01B02282BD8286850
:102310008001F7D4206AB0F5803F05D16868A168D4
:1023200020F4003008436860D4E908010843696874
:1023300021F4741108436860C6F86090FFF7A6FCAA
:10234000044606E025E000BFFFF7A0FC001B0228C2
:1023500009D828688001F7D51BE000BFFFF796FC7D
:10236000001B022802D90320BDE8F88F28688001ED
:10237000F4D40EE00128F7D06868226A00F48031B6
:10238000914204D1616A00F47010884201D00120AA
:10239000EAE70020E8E700000010024000004242A7
:1023A00080044242140000200070004010B5401E1E
:1023B000B0F1807F01D3012010BD4FF0E0246061B7
:1023C0000F21601700F01BFA0020A0610720206198
:1023D000002010BD70B5040004D094F83900002529
:1023E00010B106E0012070BD84F83850204600F09E
:1023F00023F8242084F839002068C16821F40051B2
:10240000C160204600F058F92068016921F490412C
:1024100001612068416921F02A0141612068C16899
:1024200041F40051C160E563202084F8390084F84C
:102430003A00002070BD000030B585B00024009443
:1024400001940294039400681449884224D11448EA
:10245000816941F480418161816901F48041049185
:10246000816941F00401816180690E4D00F0040032
:1024700004904FF40070009002200190032003901C
:1024800069462846FFF706FB2815CDE90004694692
:1024900028460294FFF7FEFA05B030BD003801402F
:1024A00000100240000801402DE9F843044690F86E
:1024B00039001F4616460D4620284CD1C5B1BEB185
:1024C00094F83800012846D0012084F838004FF0F5
:1024D0000008C4F83C80212084F83900FFF7D6FBBF
:1024E000A6848146E684A068B0F5805F03D004E04E
:1024F0000120BDE8F883206928B12E465FF0000571
:1025000084F838800EE00026FAE78021204600F0AB
:102510002FF9A0B9AEB116F8010B21684860E08C24
:10252000401EE084E08C4B464FF0000200970028EC
:10253000EBD14FF04001204600F01AF930B10320F2
:10254000D7E735F8020BC0F30800E6E7202084F84F
:1025500039000020CDE70220CBE7FEE73EB50021A1
:102560001148009101910F4A02910260012481609B
:10257000047301754FF460220461C2614160FEF78B
:1025800091FF08B1FEF7E4FE07200094CDE9014079
:1025900069460548FEF7DEFE002801D0FEF7D8FEAA
:1025A0003EBD00000024014018000020094808B585
:1025B000416941F0010141614069002200F00100E0
:1025C000009011460B20FFF7CDFBBDE808400B2023
:1025D000FFF7BABB0010024000B585B000200290A2
:1025E00003900948816941F004018161806969466D
:1025F00000F00400049002200090032001900348A2
:10260000FFF748FA05B000BD001002400008014085
:102610000C4810B50A4901604FF4E13141600021D6
:1026200081600C22C160C0E904128161C161FFF7C1
:10263000D1FE002803D0BDE81040FEF789BE10BDD2
:10264000003801408C000020FEE77047704770475B
:10265000FFF722BB30B595B028216846FDF724FE70
:1026600014210AA8FDF720FE18210FA8FDF71CFE73
:1026700001210804CDE900100024029402250491F0
:10268000CDE907504FF4E01009906846FFF7FEFCD3
:102690000F20CDE90A056802CDE90C4002210AA805
:1026A0000E94FFF707FCA80311900F950FA8FFF7F2
:1026B0008BFB15B030BD704770B5044600680169EA
:1026C000E26821F44051114301612169A068084387
:1026D000616908432168CA6841F20C639A43024366
:1026E000CA6020684169A26921F4407111434161C7
:1026F0001E492068884202D1FFF782FC01E0FFF703
:102700006FFC00EBC00101EB0012606864218000E7
:10271000B2FBF0F3B3FBF1F36FF018067343B2FBB7
:10272000F0F5B2FBF0F605EB8305322303EB05155C
:10273000B5FBF1F5B6FBF1F605F0F00505EB061576
:10274000B2FBF0F6B2FBF0F0B0FBF1F06FF0180264
:10275000504306EB800003EB0010B0FBF1F0216862
:1027600000F00F002844886070BD00000038014070
:102770002DE9F041984617460E460446069D1DE099
:10278000681C1BD02DB1FFF781FAA0EB0800A8420E
:1027900014D92068C16821F4D071C16020684169F2
:1027A00021F001014161202084F8390084F83A00C9
:1027B000002084F838000320BDE8F081206800681C
:1027C00036EA000004D00020B842D9D00020F3E758
:1027D0000120F9E7FEE7490050EAC12018BF0420B4
:1027E0004A0D18BF40F0010040F2FF72B2EB515F9A
:1027F00008BF40F00200012808BF05207047090704
:10280000090E002804DB00F1E02080F80014704776
:1028100000F00F0000F1E02080F8141D70477047B1
:1028200013B56423012269460148FFF73DFE1CBD34
:102830008C000020FFF738FAFFF70CFFFFF7CCFE03
:10284000FFF7B4FEFFF78AFEFFF7E2FE012202491E
:102850000248FEF7FFFEFEE70000002018000020FF
:1028600010B500290AD00878002807D00548784418
:10287000FEF7B0F8002801D0002010BD02487844CF
:1028800010BD0000120400000A04000002494FF0CD
:10289000000000F017B900BF0000F87FB0FA80F325
:1028A00010FA03F10AD0C3F11D0303F580634FEA68
:1028B00041504FEA035202EBD12170474FF0000024
:1028C00070470000DFF848C170B51CEA111E1EBF3A
:1028D0001CEA13159EEA0C0F95EA0C0F00F06F80AE
:1028E00081EA030423EA4C134EEAD47E21EA4C1118
:1028F00041F4801143F48013AE44A1FB024CA0FBD1
:102900000365AEF17F7E361955EB0C05A1FB034C38
:102910004CF10003A0FB021C16EB0C06654153F1C1
:102920000003094218BF46F0010613F4007F0BD1E3
:102930004FEA03314FEA0530340341EA155140EACA
:1029400016506FF003020AE04FEAC3214FEAC52098
:10295000F40241EA555140EA56506FF0020202EB90
:102960002E4201EB025585EACE710AD05FEA440C93
:1029700018BF24F0004450F1000041F1000120EAAA
:10298000D47040F2FE7C624500D270BDA84214BFF4
:102990004FF080444FF04044002E08BF0024BEF1A9
:1029A000806FA8BFA1F1C041BDE8704080F2828075
:1029B0004FF0000001F1C04101F0004170479EEA74
:1029C0000C0F0CEA131518BF95EA0C0F06D04FF048
:1029D000000081EA030E0EF0004170BD00F01CF80B
:1029E0008900013E00F007B800F009B84FEA430C37
:1029F0005FEA5C5C08D081EA030100F05BB84FEA53
:102A0000410C5FEA5C5CF6D14FF000000149704771
:102A10000000FF070000F87F0EF1020E2EF0030EFB
:102A20005EF8046B364205D4012A43EB030515F525
:102A3000001F12D8012841EB010C1CF5001F0CD817
:102A40000ED14FEAD17C15F5001F0CEB4C0C0CF1AC
:102A5000020C08BF4CEBD37C04E04FF0080C01E003
:102A60004FEAD37C0CEB4C0526FA05F606F0070678
:102A7000B6F1040C06D20EEB860CBDE870404CF0AB
:102A8000010C6047DFE80CF0090B02024FF0004137
:102A90004FF00000A1F5002170BD19461046012835
:102AA00051EB010418BFD4F5001484BF002001F0DD
:102AB000004170BD0808A0F500114FEA31017047D0
:102AC000FDF7F6BC0CF00F03092B08BF082000F03F
:102AD00059800A2B0BD0082B18BF704708BF1CF079
:102AE000400F0AD04FF000004FF0000170471CF07B
:102AF000400F18BF4FF0004070471CF0100F08D077
:102B000020F0704300F07F4242EAD3014FEA437065
:102B1000704700F0604021F07F4242EA000201F07D
:102B20007F4040EA727070474FF0FF0C4CF4E06C4D
:102B30001CEA11531CBF9CEA030C9445C2BFDA4245
:102B400001EB02517047002B0DD0BCF1000F0FD0EC
:102B5000002A01F00041A4BF41F0E04141F07F6153
:102B60004FF00000704701F000414FF00000704747
:102B700050EA01334FF09B0C18BF4CF0806C7FF48F
:102B800085AE70471CF4801F11D01CF4E02F03D0D9
:102B90006FEACC31490070474FF04050EFF30082AC
:102BA00022F0704242EA000282F3008870474FF040
:102BB0000000704700000000000000000102030454
:102BC000060708090000000001020304024000009B
:102BD000000000A00000000005400000000000C848
:102BE000000000000C4000000000409C00000000BD
:102BF000194000000020BCBE00000000344000006E
:102C0000BFC91B8E00000004B5400000504BCFD060
:102C10006607E2CF010000006C4100003E8251AA2D
:102C2000DFEEA73401000000D9420000DCB5A0E2CD
:102C30003A301F97FFFFFFFFB4450000FD25A0C8F5
:102C4000E9A3C14FFFFFFFFFFF3F0000000000802E
:102C500000000000FF3F00000000008000000000B6
:102C60009C2C000800000020180000006C010008E7
:102C7000B42C000818000020180700008801000884
:102C80001C00000043000000F8FFFFFF0C000000E4
:102C90000E0000000F0000002E00000000000000E9
:102CA0000000000001000000100000000000000013
:042CB0000024F40008
:0400000508000131BD
:00000001FF
